S0120000414443204472697665722E73726563BE
S11300000C942A000C9434000C9434000C943400A6
S11300100C9434000C9434000C9434000C9434008C
S11300200C9434000C9434000C9434000C9434007C
S11300300C9434000C9434000C9434000C9434006C
S11300400C9434000C9434000C9434000C9434005C
S11300500C94340011241FBECFE5D8E0DEBFCDBF21
S11300600E947F010C947C020C94000087B1806490
S113007087B987B18F7787B987B18F7D87B986B103
S11300808F7D86B986B1877F86B986B1816086B94E
S113009086B1826086B986B1846086B986B180688B
S11300A086B908958032B0F46115710599F097B15D
S11300B0907E97B997B1892B87B986B1806486B948
S11300C0349BFECF86B1806186B984B195B1FB01C2
S11300D09183808308950F931F93CF93DF9300D070
S11300E0CDB7DEB78B01BE016F5F7F4F0E94520018
S11300F029813A81A8E8B3E10E946D02DC01CB01B9
S1130100072E7AE0B695A795979587957A95D1F7B6
S1130110702DF801918380830F900F90DF91CF9120
S11301201F910F910895843008F072C0683008F070
S11301306FC0423008F06CC0813001F130F0823081
S1130140B1F1833009F44CC00895413059F42AB315
S113015081E090E002C0880F991F6A95E2F7822B34
S11301608ABB08952AB381E090E002C0880F991FEA
S11301706A95E2F7809582238ABB0895413059F449
S113018027B381E090E002C0880F991F6A95E2F7D7
S1130190822B87BB089527B381E090E002C0880FCB
S11301A0991F6A95E2F78095822387BB08954130B1
S11301B059F424B381E090E002C0880F991F6A9536
S11301C0E2F7822B84BB089524B381E090E002C05F
S11301D0880F991F6A95E2F78095822384BB08955E
S11301E0413059F421B381E090E002C0880F991F97
S11301F06A95E2F7822B81BB089521B381E090E0F8
S113020002C0880F991F6A95E2F78095822381BB0B
S11302100895843008F072C0683008F06FC042302E
S113022008F06CC0813001F130F08230B1F18330DC
S113023009F44CC00895413059F42BB381E090E0A7
S113024002C0880F991F6A95E2F7822B8BBB089531
S11302502BB381E090E002C0880F991F6A95E2F702
S1130260809582238BBB0895413059F428B381E0F3
S113027090E002C0880F991F6A95E2F7822B88BB31
S1130280089528B381E090E002C0880F991F6A9511
S1130290E2F78095822388BB0895413059F425B351
S11302A081E090E002C0880F991F6A95E2F7822BE3
S11302B085BB089525B381E090E002C0880F991FA3
S11302C06A95E2F78095822385BB0895413059F4FD
S11302D022B381E090E002C0880F991F6A95E2F78B
S11302E0822B82BB089522B381E090E002C0880F84
S11302F0991F6A95E2F78095822382BB0895CF9374
S1130300DF9300D0CDB7DEB741E061E081E00E9429
S1130310930041E062E081E00E94930041E063E0E9
S113032081E00E94930041E064E080E00E94930039
S113033041E065E080E00E94930041E066E080E0F7
S11303400E94930041E067E080E00E94930040E057
S113035061E080E00E94930041E063E080E00E945D
S113036093000E94360000E010E0BE016F5F7F4FF3
S113037081E00E946B0029813A8136952795ABE78D
S1130380B4E10E946D02969587950817190709F143
S11303900E94400241E063E080E00E9409012FE7EF
S11303A088E391E0215080409040E1F700C00000D4
S11303B040E063E080E00E94090129813A8136959A
S11303C02795ABE7B4E10E946D028C011695079561
S11303D0CCCF802F0E944002C8CFCF93C82F80FF7C
S11303E006C041E064E080E00E94090105C040E0ED
S11303F064E080E00E940901C1FF06C041E065E0BD
S113040080E00E94090105C040E065E080E00E94B0
S11304100901C2FF06C041E066E080E00E940901D4
S113042005C040E066E080E00E940901C3FF06C009
S113043041E067E080E00E94090105C040E067E018
S113044080E00E940901CF9108950E94ED01089572
S113045041E061E081E00E940901089541E062E029
S113046081E00E940901089540E061E081E00E947A
S11304700901089540E062E081E00E9409010895C5
S1130480CF93DF93D82FCDEC8C9FC12D1124C6952B
S1130490C695C6958C2F0E9425020E942E028FE1DC
S11304A09EE40197F1F700C000000E943A02CC0FCD
S11304B08C2F880F880FC80F8D2F8C1B0E9425024C
S11304C00E9428028FE19EE40197F1F700C000002A
S11304D00E943402DF91CF910895A29FB001B39F8F
S11304E0C001A39F700D811D1124911DB29F700D39
S10F04F0811D1124911D0895F894FFCF84
S9030000FC
