S0170000544D525F74696D6572305F746573742E737265634B
S11300000C942A000C9447000C9447000C9447006D
S11300100C9447000C9447000C9447000C94470040
S11300200C9447000C9447000C94FA030C94BF03FF
S11300300C9447000C9447000C9447000C94470020
S11300400C9447000C9447000C9447000C94470010
S11300500C94470011241FBECFE5D8E0DEBFCDBF0E
S113006010E0A0E6B0E0EEEAF8E002C005900D92E0
S1130070AA36B107D9F720E0AAE6B0E001C01D9284
S1130080A537B207E1F70E9458030C9455040C9469
S11300900000843008F072C0683008F06FC042304D
S11300A008F06CC0813001F130F08230B1F183305E
S11300B009F44CC00895413059F42AB381E090E02A
S11300C002C0880F991F6A95E2F7822B8ABB0895B4
S11300D02AB381E090E002C0880F991F6A95E2F785
S11300E0809582238ABB0895413059F427B381E077
S11300F090E002C0880F991F6A95E2F7822B87BBB4
S1130100089527B381E090E002C0880F991F6A9593
S1130110E2F78095822387BB0895413059F424B3D4
S113012081E090E002C0880F991F6A95E2F7822B64
S113013084BB089524B381E090E002C0880F991F26
S11301406A95E2F78095822384BB0895413059F47F
S113015021B381E090E002C0880F991F6A95E2F70D
S1130160822B81BB089521B381E090E002C0880F07
S1130170991F6A95E2F78095822381BB08958430A4
S113018008F072C0683008F06FC0423008F06CC0EC
S1130190813001F130F08230B1F1833009F44CC088
S11301A00895413059F42BB381E090E002C0880FE8
S11301B0991F6A95E2F7822B8BBB08952BB381E0DC
S11301C090E002C0880F991F6A95E2F78095822318
S11301D08BBB0895413059F428B381E090E002C00C
S11301E0880F991F6A95E2F7822B88BB089528B37C
S11301F081E090E002C0880F991F6A95E2F780952C
S1130200822388BB0895413059F425B381E090E0FE
S113021002C0880F991F6A95E2F7822B85BB089567
S113022025B381E090E002C0880F991F6A95E2F738
S11302308095822385BB0895413059F422B381E02F
S113024090E002C0880F991F6A95E2F7822B82BB67
S1130250089522B381E090E002C0880F991F6A9547
S1130260E2F78095822382BB08958430A8F5683034
S113027098F5813089F028F08230C9F0833011F18B
S113028008952BB381E090E002C0880F991F6A950E
S1130290E2F782278BBB089528B381E090E002C087
S11302A0880F991F6A95E2F7822788BB089525B3C2
S11302B081E090E002C0880F991F6A95E2F78227D7
S11302C085BB089522B381E090E002C0880F991F96
S11302D06A95E2F7822782BB08958FB780688FBF43
S11302E00895CF93C82F80FF06C041E064E080E00A
S11302F00E94BF0005C040E064E080E00E94BF00AF
S1130300C1FF06C041E065E080E00E94BF0005C077
S113031040E065E080E00E94BF00C2FF06C041E00B
S113032066E080E00E94BF0005C040E066E080E037
S11303300E94BF00C3FF06C041E067E080E00E9466
S1130340BF0005C040E067E080E00E94BF00CF919D
S11303500895CF93C82F40E061E081E00E94BF0080
S113036040E062E081E00E94BF008C2F82958F7094
S11303700E94710141E063E081E00E94BF008FE9C7
S11303809FE00197F1F700C0000040E063E081E0E6
S11303900E94BF008C2F0E94710141E063E081E064
S11303A00E94BF008FE99FE00197F1F700C00000B1
S11303B040E063E081E00E94BF00CF9108952FE701
S11303C085EB91E0215080409040E1F700C00000AF
S11303D040E061E081E00E94BF0040E062E081E033
S11303E00E94BF0082E00E94710141E063E081E06D
S11303F00E94BF008FE99FE00197F1F700C0000061
S113040040E063E081E00E94BF0088E20E94A9010D
S113041090EF9A95F1F78FE00E94A90120EF2A95B9
S1130420F1F781E00E94A9018FE39FE10197F1F7C1
S113043000C0000086E00E94A9010895CF93C82F50
S113044041E061E081E00E94BF0040E062E081E0C1
S11304500E94BF008C2F82958F700E94710141E031
S113046063E081E00E94BF008FE99FE00197F1F70C
S113047000C0000040E063E081E00E94BF008C2FD8
S11304800E94710141E063E081E00E94BF008FE9B6
S11304909FE00197F1F700C0000040E063E081E0D5
S11304A00E94BF00CF9108950F931F93CF9300979D
S11304B029F40CC00E941E02CF5F02C08C01C0E070
S11304C0F801EC0FF11D80818111F4CFCF911F91C0
S11304D00F910895CF92DF92EF92FF920F931F93A3
S11304E08B019C01672B682B692B49F580E30E94E3
S11304F01E0245C0DC01CB01880F991FAA1FBB1F38
S11305006C017D01CC0CDD1CEE1CFF1CCC0CDD1C35
S1130510EE1CFF1CC80ED91EEA1EFB1EC901B80141
S11305202AE030E040E050E00E9433046C0D7D1D71
S11305308E1D9F1D022F132F242F352F04C061E021
S113054070E080E090E0011511052105310591F678
S11305502AE030E040E050E00E943304E22EF32E23
S1130560042F152F80E3860F0E941E026E2D7F2D0F
S1130570802F912F613071058105910549F71F91F5
S11305800F91FF90EF90DF90CF90089581E00E944B
S1130590A9018FE39FE10197F1F700C000000895DE
S11305A0813039F4603168F480E8860F0E94A90133
S11305B00895823031F4603120F480EC860F0E947B
S11305C0A9010895CF93DF93009781F0FC01208166
S11305D0243060F46181683048F4EC0141E0822FFA
S11305E00E944900698188810E943501DF91CF9181
S11305F008950E94C60280916C008F5F80936C0006
S11306008C3339F410926C0080916B008F5F80936F
S11306106B0080916B008C3339F410926B008091E5
S11306206A008F5F80936A0083E690E00E94540220
S113063064E082E00E94D00280916A008A3020F453
S113064065E082E00E94D00260916A0070E080E080
S113065090E00E946A0266E082E00E94D0028AE38F
S11306600E941E0280916B008A3020F468E082E0D0
S11306700E94D00260916B0070E080E090E00E94E4
S11306806A0269E082E00E94D0028AE30E941E02AC
S113069080916C008A3020F46BE082E00E94D002EA
S11306A060916C0070E080E090E00E946A0208951E
S11306B041E061E081E00E94490041E062E081E0C4
S11306C00E94490041E063E081E00E94490041E06A
S11306D064E080E00E94490041E065E080E00E941F
S11306E0490041E066E080E00E94490041E067E0A3
S11306F080E00E94490041E063E080E00E944900FC
S113070041E067E082E00E9449000E94DF010E940C
S11307106D018AEF0E94B60389EF92E00E94B8034C
S11307200E94A2030E94AC0380E690E00E94E202D1
S11307302FE78EE19FE2215080409040E1F700C016
S11307400000F2CF83B7886083BF83B78F7B83BFFA
S113075089B7826089BF089583B7816083BF83B7F7
S1130760826083BF83B78B7F83BF08958CBF089556
S1130770009721F0909372008093710008951F9266
S11307800F920FB60F9211242F933F934F935F93C1
S11307906F937F938F939F93AF93BF93EF93FF9345
S11307A080916F00909170000196909370008093F7
S11307B06F00813D934069F480E782BF109270001E
S11307C010926F00E0917300F0917400309709F07B
S11307D00995FF91EF91BF91AF919F918F917F9177
S11307E06F915F914F913F912F910F900FBE0F909A
S11307F01F9018951F920F920FB60F9211242F93EA
S11308003F934F935F936F937F938F939F93AF9394
S1130810BF93EF93FF9380916D0090916E000196CA
S113082090936E0080936D00853C934059F4109230
S11308306E0010926D00E0917100F091720030979B
S113084009F00995FF91EF91BF91AF919F918F911D
S11308507F916F915F914F913F912F910F900FBEB8
S11308600F901F901895A1E21A2EAA1BBB1BFD0125
S11308700DC0AA1FBB1FEE1FFF1FA217B307E4077B
S1130880F50720F0A21BB30BE40BF50B661F771FD3
S1130890881F991F1A9469F76095709580959095B3
S11108A09B01AC01BD01CF010895F894FFCF78
S10D08AE02070054696D653A00006A
S9030000FC
