:100000000C942A000C9434000C9434000C943400AA
:100010000C9434000C9434000C9434000C94340090
:100020000C9434000C9434000C9434000C94340080
:100030000C9434000C9434000C9434000C94340070
:100040000C9434000C9434000C9434000C94340060
:100050000C94340011241FBECFE5D8E0DEBFCDBF25
:100060000E9436000C9466000C94000084B38460F7
:1000700084BB84B3806884BB81B3886081BB92B346
:1000800088E0892782BB2FEF89E698E121508040E4
:100090009040E1F700C0000085B3805885BB2FEF8A
:1000A0008AED9AE1215080409040E1F700C00000C5
:1000B00095B384E0892785BB2FEF8BE49DE1215028
:1000C00080409040E1F700C00000D9CFF894FFCF06
:00000001FF
