:100000000C942A000C9447000C9447000C94470071
:100010000C9447000C9447000C9447000C94310357
:100020000C9447000C9447000C9447000C94470034
:100030000C9447000C9447000C9447000C94470024
:100040000C9447000C9447000C9447000C94470014
:100050000C94470011241FBECFE5D8E0DEBFCDBF12
:1000600010E0A0E6B0E0ECE0F0E102C005900D92F7
:10007000A636B107D9F724E0A6E6B0E001C01D928C
:10008000A73BB207E1F70E94A3010C9404080C946B
:100090000000843008F072C0683008F06FC0423051
:1000A00008F06CC0813001F130F08230B1F1833062
:1000B00009F44CC00895413059F42AB381E090E02E
:1000C00002C0880F991F6A95E2F7822B8ABB0895B8
:1000D0002AB381E090E002C0880F991F6A95E2F789
:1000E000809582238ABB0895413059F427B381E07B
:1000F00090E002C0880F991F6A95E2F7822B87BBB8
:10010000089527B381E090E002C0880F991F6A9597
:10011000E2F78095822387BB0895413059F424B3D8
:1001200081E090E002C0880F991F6A95E2F7822B68
:1001300084BB089524B381E090E002C0880F991F2A
:100140006A95E2F78095822384BB0895413059F483
:1001500021B381E090E002C0880F991F6A95E2F711
:10016000822B81BB089521B381E090E002C0880F0B
:10017000991F6A95E2F78095822381BB08958430A8
:10018000A8F5683098F5813089F028F08230C9F000
:10019000833011F108952BB381E090E002C0880F05
:1001A000991F6A95E2F782278BBB089528B381E0F7
:1001B00090E002C0880F991F6A95E2F7822788BBFA
:1001C000089525B381E090E002C0880F991F6A95D9
:1001D000E2F7822785BB089522B381E090E002C058
:1001E000880F991F6A95E2F7822782BB0895CF9303
:1001F000DF93EC010E94BB052091660030916700FF
:10020000C9018C0F9D1F883E43E0940758F42817BE
:10021000390758F4E901C859DF4F9093670080937C
:10022000660005C0C0E0D0E002C0C0E0D0E00E949F
:10023000C506CE01DF91CF9108950895FC01039684
:10024000928381832FEF3FEF3483238396838583CB
:100250009087878310820895FC0111861086089587
:10026000CF93DF93EB01488159814F3F2FEF520726
:1002700021F4FC01A781B0850DC0DC01139601C0FB
:10028000DF011296ED91FC91139720813181421785
:100290005307B0F71296ED91FC911397FB83EA8315
:1002A000D583C483BD83AC831396DC93CE9312971E
:1002B00099878887FC0120812F5F2083DF91CF9170
:1002C0000895CF93DF93FC01A085B185C281D381CE
:1002D000848195819D838C83C481D5818281938122
:1002E0009B838A8311968D919C911297E817F90749
:1002F00031F48481958112969C938E931197118687
:1003000010868C9181508C938C91DF91CF910895C0
:1003100062E082E00E94BF0088EE93E00E949A07AC
:10032000F7CF67E082E00E94BF0088EE93E00E9472
:100330009A07F7CF63E083E00E94BF0088EE93E066
:100340000E949A07F7CF41E062E082E00E944900F4
:1003500041E067E082E00E94490041E063E083E021
:100360000E944900E12CF12C00E020E030E044E65E
:1003700050E060E070E088E891E00E943B0501E019
:1003800020E030E044E650E060E070E081E991E098
:100390000E943B0502E020E030E044E650E060E0EF
:1003A00070E08AE991E00E943B050E948F05FFCF33
:1003B0001BBC89EF8ABD8BE08EBD89B7806189BF88
:1003C000089531E1FC013083319722E22083319797
:1003D000A3E3A083319760833197708331971082B4
:1003E000319760E8608331971082319762E06083D3
:1003F000319763E06083319764E06083319765E013
:100400006083319766E06083319767E0608331975E
:1004100068E06083319769E06083319760E16083D1
:1004200031973083319732E13083319733E1308334
:10043000319734E13083319735E13083319736E1BC
:100440003083319737E13083319738E1308331970A
:1004500039E13083319730E23083319731E23083B4
:1004600031972083319723E220833197408331975E
:100470005083319726E22083319727E220833197FA
:1004800028E22083319729E22083319720E32083DB
:10049000319721E32083869708950E94D801A09187
:1004A000B504B091B604CD91CDBFDD91DEBFFF9113
:1004B000EF91DF91CF91BF91AF919F918F917F91FC
:1004C0006F915F914F913F912F911F910F91FF90ED
:1004D000EF90DF90CF90BF90AF909F908F907F90E4
:1004E0006F905F904F903F902F901F900F900FBE96
:1004F0000F90089581E008950F920FB6F8940F922F
:100500001F9211242F923F924F925F926F927F928F
:100510008F929F92AF92BF92CF92DF92EF92FF9213
:100520000F931F932F933F934F935F936F937F93FB
:100530008F939F93AF93BF93CF93DF93EF93FF93EB
:10054000A091B504B091B6040DB60D920EB60D9201
:100550000E94B007A091B504B091B604CD91CDBF73
:10056000DD91DEBFFF91EF91DF91CF91BF91AF9110
:100570009F918F917F916F915F914F913F912F91BB
:100580001F910F91FF90EF90DF90CF90BF90AF90B1
:100590009F908F907F906F905F904F903F902F90A3
:1005A0001F900F900FBE0F9008950F920FB6F89402
:1005B0000F921F9211242F923F924F925F926F924F
:1005C0007F928F929F92AF92BF92CF92DF92EF92E3
:1005D000FF920F931F932F933F934F935F936F93CC
:1005E0007F938F939F93AF93BF93CF93DF93EF93BB
:1005F000FF93A091B504B091B6040DB60D920EB65E
:100600000D920E94C10581110E94B007A091B5040E
:10061000B091B604CD91CDBFDD91DEBFFF91EF91DA
:10062000DF91CF91BF91AF919F918F917F916F910A
:100630005F914F913F912F911F910F91FF90EF90FC
:10064000DF90CF90BF90AF909F908F907F906F90F2
:100650005F904F903F902F901F900F900FBE0F9084
:1006600008950E94D5021895E0917D04F0917E04D2
:100670008081811107C08FEF9FEF90935404809386
:1006800053040895E0917D04F0917E040580F68185
:10069000E02D8081918190935404809353040895B8
:1006A000CF93DF93EC018F89988D0E941D01CE01BD
:1006B0000E941D01DF91CF9108956F927F928F92DA
:1006C0009F92AF92BF92CF92DF92EF920F931F93C0
:1006D000CF93DF93CDB7DEB74C01D50157968D91FF
:1006E0009C915897215031093C01620E731E61158F
:1006F000710589F416C0822F90E0FB01E80FF91F05
:100700003081D501A80FB91F59963C938081882369
:1007100029F02F5F01C020E0283068F3F50110A216
:1007200003C0D50159961C92B3E0BE1520F40F2EDC
:10073000F3E0EF2EF02DF501E68AE1A212A2C50149
:1007400002960E942C01C5010C960E942C01D50135
:100750001996BC92AE92189784E090E08E19910998
:100760001D969C938E931C975396BC92AE92529773
:1007700084E0F501B396DF011D928A95E9F7F50152
:1007800017A2A801B401C3010E94E101D5018D9314
:100790009C93C114D10419F0F601B182A082DF91BB
:1007A000CF911F910F91EF90DF90CF90BF90AF90BE
:1007B0009F908F907F906F900895CF93C0E010C06E
:1007C0008C2F90E09C01220F331F220F331F220F2A
:1007D000331F820F931F8F569B4F0E941E01CF5FC6
:1007E000C43070F388E894E00E941E018FE794E023
:1007F0000E941E0182E794E00E941E0189E694E0B7
:100800000E941E018FE594E00E941E0188E894E09A
:1008100090937E0480937D048FE794E090937C0412
:1008200080937B04CF910895CF93DF93EC010FB6B3
:10083000F8940F9280915E048F5F80935E048091A4
:10084000B5049091B604892B59F4D093B604C093A3
:10085000B50480915E04813099F40E94DD0310C0DC
:1008600080915A0481110CC0E091B504F091B60456
:1008700096898E89891720F0D093B604C093B50469
:10088000809155048F5F809355048E8990915B040D
:10089000981710F480935B0490E0FC01EE0FFF1FAB
:1008A000EE0FFF1FEE0FFF1F8E0F9F1FFC01EF5675
:1008B000FB4F0180F281E02DFD83EC8384819581E3
:1008C0009F838E83A481B581CE01029613969C935B
:1008D0008E93129795838483EE89F0E0CF01880F81
:1008E000991F880F991F880F991FE80FF91FEF565E
:1008F000FB4FFB87EA8780818F5F80830F900FBE5D
:1009000080915A04882351F0E091B504F091B60427
:1009100096898E89981710F40E947C02DF91CF91FE
:100920000895CF93DF931CC00FB6F8940F92E09117
:100930006E04F0916F04C681D781CE0102960E94A9
:10094000610180915E04815080935E04809168040F
:100950008150809368040F900FBECE010E94500317
:10096000809168048111E0CFDF91CF9108950E94BA
:100970009104FDCFFF920F931F93CF93DF93EC0170
:10098000F62E00915C0410915D048091B504909165
:10099000B60402960E946101CF3F8FEFD807B1F5F0
:1009A000FF20A1F1EFE5F4E0A181B281C091B5048F
:1009B000D091B604BD83AC83C091B504D091B60488
:1009C00014968D919C9115979F838E831496CD914B
:1009D000DC9115978091B5049091B60402969B83A3
:1009E0008A838091B5049091B604029615969C93E3
:1009F0008E931497A091B504B091B6041B96FC9306
:100A0000EE931A9780818F5F80832FC0C00FD11F14
:100A1000E091B504F091B604D383C283C017D10727
:100A200068F46091B5047091B60480917B04909154
:100A30007C046E5F7F4F0E94300117C06091B50447
:100A40007091B60480917D0490917E046E5F7F4F1B
:100A50000E9430018091530490915404C817D90723
:100A600020F4D0935404C0935304DF91CF911F918D
:100A70000F91FF9008952F923F924F925F926F9245
:100A80007F928F929F92AF92BF92CF92DF92EF921E
:100A9000FF920F931F93CF93DF933C011B015A01E9
:100AA0002901CA010E94F7006C01892B71F088E2CC
:100AB00090E00E94F700EC01892B19F0D88ECF8AC4
:100AC00006C0C6010E941D0102C0C0E0D0E0209710
:100AD00091F0950140E050E0812C912C5E0167017E
:100AE000E02E8201B101C3010E945D03CE010E948C
:100AF000140481E001C08FEFDF91CF911F910F911E
:100B0000FF90EF90DF90CF90BF90AF909F908F902D
:100B10007F906F905F904F903F902F900895EF924D
:100B2000FF920F930F2EF1E5EF2EF4E0FF2EF02D44
:100B300000E020E030E046E450E061E670E087EB62
:100B400094E00E943B05813081F4F8948FEF9FEF91
:100B5000909354048093530481E080935A0410923C
:100B60005D0410925C040E944D02809160000F9120
:100B7000FF90EF900895809150048F5F8093500410
:100B800008950F931F93CF93DF93809150048111A9
:100B9000EBC0C0915C04D0915D048E010F5F1F4FCC
:100BA00010935D0400935C0401151105B9F4809164
:100BB0007D0490917E0420917B0430917C043093DD
:100BC0007E0420937D0490937C0480937B04809129
:100BD00056048F5F809356040E943403809153041F
:100BE000909154040817190720F480E0B8C081E000
:100BF00001C080E0E0917D04F0917E04908191112C
:100C000007C02FEF3FEF3093540420935304A7C045
:100C1000E0917D04F0917E040580F681E02D068050
:100C2000F781E02D228133810217130728F43093D6
:100C300054042093530493C0A285B3852481358145
:100C400046815781E9015D834C8326813781448148
:100C50005581E9015B834A8311962D913C9112974E
:100C6000AF014E5F5F4F2417350731F4268137817E
:100C700012963C932E931197138612869C91915055
:100C80009C93A489B589109719F1268537856089C9
:100C90007189E9017D836C83208931896685778537
:100CA000E9017B836A8311966D917C9112979F0174
:100CB000245F3F4F6217730731F420893189129600
:100CC0003C932E931197158A148A9C9191509C9372
:100CD000268990915B04921710F420935B0430E016
:100CE000D901AA0FBB1FAA0FBB1FAA0FBB1F2A0F38
:100CF0003B1FD901AF56BB4F11960D90BC91A02D53
:100D0000B583A48314962D913C9115973783268340
:100D100014962D913C911597E9015B834A831596B2
:100D20005C934E931497A689B0E09D01220F331F68
:100D3000220F331F220F331FA20FB31FAF56BB4F1B
:100D4000B387A2879C919F5F9C932689E091B5040D
:100D5000F091B6049689291708F049CF4BCF9091AE
:100D6000570491110CC00CC0809158049091590403
:100D70000196909359048093580480E001C081E06B
:100D8000DF91CF911F910F910895CF93DF930FB60D
:100D9000F8940F9280915004815080935004809178
:100DA00050048111BFC080915E04811196C0BDC006
:100DB000E0917704F09178040680F781E02DA48912
:100DC000B589C685D785808991899D838C83C089A3
:100DD000D189868597859B838A8311962D913C9135
:100DE0001297CF010C962817390731F48089918921
:100DF00012969C938E931197158A148A8C91815028
:100E00008C93A285B385C481D581868197819D838A
:100E10008C83C681D781848195819B838A83119637
:100E20008D919C9112979F012E5F3F4F82179307E0
:100E300031F48681978112969C938E931197138635
:100E400012868C9181508C93868990915B049817BF
:100E500010F480935B0490E0DC01AA0FBB1FAA0F83
:100E6000BB1FAA0FBB1F8A0F9B1FDC01AF56BB4FD6
:100E700011960D90BC91A02DB583A48314968D91ED
:100E80009C911597978386831496CD91DC91159745
:100E90003B832A8315963C932E931497A689B0E042
:100EA000CD01880F991F880F991F880F991FA80FD0
:100EB000B91FAF56BB4FB387A2878C918F5F8C93BE
:100EC0009689A091B504B091B60456968C91981766
:100ED00030F081E08093570402C0E0E0F0E08091C0
:100EE0007204811165CFEF2B11F00E943403C09181
:100EF0005804D0915904209769F00E94C1058823B5
:100F000019F081E0809357042197B9F710925904A2
:100F10001092580480915704882331F00E947C027B
:100F200081E003C080E001C080E00F900FBEDF9140
:100F3000CF910895CF93DF93EC01892B49F00E9464
:100F4000BB0560E0CE010E94BA040E94C50601C044
:100F500080E0811102C00E947C02DF91CF91089550
:100F600080915004882321F081E0809357040895F4
:100F70001092570420915B0401C02150822F90E011
:100F8000FC01EE0FFF1FEE0FFF1FEE0FFF1FE80F1C
:100F9000F91FEF56FB4F3081332379F3AC01440F37
:100FA000551F440F551F440F551F480F591FDF0190
:100FB0000180F281E02D0280F381E02D1296FC93F6
:100FC000EE9311974C565B4FE417F50729F44281D5
:100FD0005381FD0152834183FC01EE0FFF1FEE0F91
:100FE000FF1FEE0FFF1F8E0F9F1FFC01EF56FB4FE1
:100FF0000180F281E02D868197819093B6048093E1
:0C100000B50420935B040895F894FFCF22
:06100C000349444C4500BD
:00000001FF
