S014000050524F4A45435420746573742E7372656319
S11300000C942A000C943F000C943F000C943F0085
S11300100C943F000C943F000C943F000C943F0060
S11300200C943F000C943F000C943F000C943F0050
S11300300C943F000C943F000C943F000C943F0040
S11300400C943F000C943F000C943F000C943F0030
S11300500C943F0011241FBECFE5D8E0DEBFCDBF16
S113006010E0A0E6B0E0ECE3F7E002C005900D92EA
S1130070A43BB107D9F70E94D7020C949C030C94BB
S11300800000843008F072C0683008F06FC042305D
S113009008F06CC0813001F130F08230B1F183306E
S11300A009F44CC00895413059F42AB381E090E03A
S11300B002C0880F991F6A95E2F7822B8ABB0895C4
S11300C02AB381E090E002C0880F991F6A95E2F795
S11300D0809582238ABB0895413059F427B381E087
S11300E090E002C0880F991F6A95E2F7822B87BBC4
S11300F0089527B381E090E002C0880F991F6A95A4
S1130100E2F78095822387BB0895413059F424B3E4
S113011081E090E002C0880F991F6A95E2F7822B74
S113012084BB089524B381E090E002C0880F991F36
S11301306A95E2F78095822384BB0895413059F48F
S113014021B381E090E002C0880F991F6A95E2F71D
S1130150822B81BB089521B381E090E002C0880F17
S1130160991F6A95E2F78095822381BB08958430B4
S113017008F072C0683008F06FC0423008F06CC0FC
S1130180813001F130F08230B1F1833009F44CC098
S11301900895413059F42BB381E090E002C0880FF8
S11301A0991F6A95E2F7822B8BBB08952BB381E0EC
S11301B090E002C0880F991F6A95E2F78095822328
S11301C08BBB0895413059F428B381E090E002C01C
S11301D0880F991F6A95E2F7822B88BB089528B38C
S11301E081E090E002C0880F991F6A95E2F780953C
S11301F0822388BB0895413059F425B381E090E00F
S113020002C0880F991F6A95E2F7822B85BB089577
S113021025B381E090E002C0880F991F6A95E2F748
S11302208095822385BB0895413059F422B381E03F
S113023090E002C0880F991F6A95E2F7822B82BB77
S1130240089522B381E090E002C0880F991F6A9557
S1130250E2F78095822382BB0895843008F04EC073
S1130260683008F04BC04115510509F447C081308E
S1130270B1F028F0823019F1833089F1089589B3FF
S113028090E002C0959587956A95E2F780FF04C0D7
S113029081E0FA0180830895FA011082089586B3FB
S11302A090E002C0959587956A95E2F780FF04C0B7
S11302B081E0FA0180830895FA011082089583B3DE
S11302C090E002C0959587956A95E2F780FF04C097
S11302D081E0FA0180830895FA011082089580B3C1
S11302E090E002C0959587956A95E2F780FF04C077
S11302F081E0FA0180830895FA0110820895CF9372
S1130300C82F80FF06C041E064E080E00E94B7008F
S113031005C040E064E080E00E94B700C1FF06C071
S113032041E065E080E00E94B70005C040E065E080
S113033080E00E94B700C2FF06C041E066E080E0B2
S11303400E94B70005C040E066E080E00E94B7006C
S1130350C3FF06C041E067E080E00E94B70005C02B
S113036040E067E080E00E94B700CF91089541E04B
S113037064E080E00E94410041E065E080E00E948A
S1130380410041E066E080E00E94410041E067E016
S113039080E00E94410041E061E081E00E94410070
S11303A041E062E081E00E94410041E063E081E0DD
S11303B00E9441000895CF93C82F40E061E081E09E
S11303C00E94B70040E062E081E00E94B7008C2FF9
S11303D082958F700E947F0141E063E081E00E947A
S11303E0B7008FE99FE00197F1F700C0000040E0FB
S11303F063E081E00E94B7008C2F0E947F0141E0FE
S113040063E081E00E94B7008FE99FE00197F1F774
S113041000C0000040E063E081E00E94B700CF919B
S113042008952FE785EB91E0215080409040E1F75B
S113043000C0000040E061E081E00E94B70040E0BD
S113044062E081E00E94B70082E00E947F0141E007
S113045063E081E00E94B7008FE99FE00197F1F724
S113046000C0000040E063E081E00E94B70088E241
S11304700E94DB0190EF9A95F1F78FE00E94DB0177
S113048020EF2A95F1F781E00E94DB018FE39FE1E1
S11304900197F1F700C0000086E00E94DB01089597
S11304A0CF93C82F41E061E081E00E94B70040E0B3
S11304B062E081E00E94B7008C2F82958F700E94C9
S11304C07F0141E063E081E00E94B7008FE99FE093
S11304D00197F1F700C0000040E063E081E00E9472
S11304E0B7008C2F0E947F0141E063E081E00E940D
S11304F0B7008FE99FE00197F1F700C0000040E0EA
S113050063E081E00E94B700CF9108950F931F9399
S1130510CF93009729F40CC00E945002CF5F02C011
S11305208C01C0E0F801EC0FF11D80818111F4CF42
S1130530CF911F910F9108950F931F93CF9300971D
S113054071F415C00E9450022FE785E493E0215016
S113055080409040E1F700C00000CF5F02C08C01F2
S1130560C0E0F801EC0FF11D80818111EBCFCF9138
S11305701F910F91089581E00E94DB018FE39FE1B9
S11305800197F1F700C000000895813039F460311B
S113059068F480E8860F0E94DB010895823031F40C
S11305A0603120F480EC860F0E94DB010895CF9324
S11305B0DF9300D01F92CDB7DEB70E94B70140E0B1
S11305C060E081E00E94410040E066E083E00E9438
S11305D0410040E062E083E00E9441000E94110279
S11305E02FEF8DE399E4215080409040E1F700C063
S11305F000002FEF89E698E1215080409040E1F718
S113060000C0000080E690E00E949C022FEF81EE83
S113061094E0215080409040E1F700C000008AE35C
S11306200E9450022FEF87E99AE3215080409040C6
S1130630E1F700C000000E94BB0260E081E00E947C
S1130640C5028CE690E00E949C0260E082E00E9479
S1130650C5022FEF83EC99E0215080409040E1F7F0
S113066000C000008BE790E00E949C02AE014F5F47
S11306705F4F60E081E00E942D01AE014E5F5F4F4D
S113068066E083E00E942D01AE014D5F5F4F62E0A2
S113069083E00E942D018981813019F40E94BB02FC
S11306A0A8CF8A81813031F50E94BB0260E081E0ED
S11306B00E94C50289E890E00E9486026EE081E013
S11306C00E94C5028DE890E00E94860263E081E00A
S11306D00E94C50281E990E00E949C022FEF85EE02
S11306E09AEA215080409040E1F700C000000E9447
S11306F0BB027FCF8B81813009F0B8CF0E94BB024F
S113070060E081E00E94C5028CE990E00E949C02B6
S113071060E082E00E94C5028CEA90E00E949C02A4
S11307202FEF85EE9AEA215080409040E1F700C017
S10F073000000E94BB025DCFF894FFCFD4
S113073C536179204D79204E616D65003129204536
S113074C72656E20596561676572003229204865AF
S113075C6973656E6265726700232320002023236E
S113076C00544154414B414920212100596F7527B4
S113077C726520476F642044616D6E00526967682E
S107078C74210000D0
S9030000FC
