S01200004C4544204472697665722E73726563B1
S11300000C942A000C9434000C9434000C943400A6
S11300100C9434000C9434000C9434000C9434008C
S11300200C9434000C9434000C9434000C9434007C
S11300300C9434000C9434000C9434000C9434006C
S11300400C9434000C9434000C9434000C9434005C
S11300500C94340011241FBECFE5D8E0DEBFCDBF21
S11300600E94F8000C9411010C940000843008F0F4
S113007072C0683008F06FC0423008F06CC0813044
S113008001F130F08230B1F1833009F44CC00895AD
S1130090413059F42AB381E090E002C0880F991FDF
S11300A06A95E2F7822B8ABB08952AB381E090E037
S11300B002C0880F991F6A95E2F7809582238ABB54
S11300C00895413059F427B381E090E002C0880FCD
S11300D0991F6A95E2F7822B87BB089527B381E0C5
S11300E090E002C0880F991F6A95E2F780958223F9
S11300F087BB0895413059F424B381E090E002C0F5
S1130100880F991F6A95E2F7822B84BB089524B364
S113011081E090E002C0880F991F6A95E2F780950C
S1130120822384BB0895413059F421B381E090E0E7
S113013002C0880F991F6A95E2F7822B81BB08954C
S113014021B381E090E002C0880F991F6A95E2F71D
S11301508095822381BB08958430A8F5683098F592
S1130160813089F028F08230C9F0833011F108958C
S11301702BB381E090E002C0880F991F6A95E2F7E3
S113018082278BBB089528B381E090E002C0880FDA
S1130190991F6A95E2F7822788BB089525B381E009
S11301A090E002C0880F991F6A95E2F7822785BB09
S11301B0089522B381E090E002C0880F991F6A95E8
S11301C0E2F7822782BB0895CF93DF93FC018081FD
S11301D0843058F46181683040F4EF0141E00E94BA
S11301E03600698188810E94AC00DF91CF91089527
S11301F0CF93DF9300D01F92CDB7DEB782E089831F
S113020087E08A831B82CE0101960E94E4002FE7D7
S11302108AE196E0215080409040E1F700C0000060
S1090220F2CFF894FFCFB9
S9030000FC
