:100000000C942A000C9434000C9434000C943400AA
:100010000C9434000C9434000C9434000C94340090
:100020000C9434000C9434000C9434000C94340080
:100030000C9434000C9434000C9434000C94340070
:100040000C9434000C9434000C9434000C94340060
:100050000C94340011241FBECFE5D8E0DEBFCDBF25
:100060000E9422010C9481010C940000843008F05D
:1000700072C0683008F06FC0423008F06CC0813048
:1000800001F130F08230B1F1833009F44CC00895B1
:10009000413059F42AB381E090E002C0880F991FE3
:1000A0006A95E2F7822B8ABB08952AB381E090E03B
:1000B00002C0880F991F6A95E2F7809582238ABB58
:1000C0000895413059F427B381E090E002C0880FD1
:1000D000991F6A95E2F7822B87BB089527B381E0C9
:1000E00090E002C0880F991F6A95E2F780958223FD
:1000F00087BB0895413059F424B381E090E002C0F9
:10010000880F991F6A95E2F7822B84BB089524B368
:1001100081E090E002C0880F991F6A95E2F7809510
:10012000822384BB0895413059F421B381E090E0EB
:1001300002C0880F991F6A95E2F7822B81BB089550
:1001400021B381E090E002C0880F991F6A95E2F721
:100150008095822381BB0895843008F072C0683096
:1001600008F06FC0423008F06CC0813001F130F00F
:100170008230B1F1833009F44CC00895413059F414
:100180002BB381E090E002C0880F991F6A95E2F7D7
:10019000822B8BBB08952BB381E090E002C0880FC7
:1001A000991F6A95E2F7809582238BBB08954130B1
:1001B00059F428B381E090E002C0880F991F6A9536
:1001C000E2F7822B88BB089528B381E090E002C05B
:1001D000880F991F6A95E2F78095822388BB08955E
:1001E000413059F425B381E090E002C0880F991F97
:1001F0006A95E2F7822B85BB089525B381E090E0F4
:1002000002C0880F991F6A95E2F78095822385BB0B
:100210000895413059F422B381E090E002C0880F84
:10022000991F6A95E2F7822B82BB089522B381E081
:1002300090E002C0880F991F6A95E2F780958223AB
:1002400082BB0895CF93DF931F92CDB7DEB741E015
:1002500064E081E00E94360041E065E081E00E94B8
:10026000360040E066E081E00E94360041E067E051
:1002700081E00E94360041E062E082E00E943600A8
:1002800040E064E081E00E94AC000E945E01BE019B
:100290006F5F7F4F8AE00E9477018981853021F46A
:1002A00095B384E0892785BB2FE78AE196E021504A
:1002B00080409040E1F700C00000E9CF8DB180623E
:1002C0008DB98DB180618DB98DB188608DB98DB1D9
:1002D00084608DB98DB181608DB98DB18D7F8DB9FF
:1002E0008EB18E7F8EB98DB180648DB90895611500
:1002F000710531F08FB9779BFECF8FB1FB01808301
:060300000895F894FFCF00
:00000001FF
