:100000000C942A000C943C000C943C000C943C0092
:100010000C943C000C943C000C94CC010C94940186
:100020000C943C000C945A010C94FD000C94C200FA
:100030000C943C000C943C000C943C000C943C0050
:100040000C943C000C943C000C943C000C943C0040
:100050000C943C0011241FBECFE5D8E0DEBFCDBF1D
:1000600020E0A0E6B0E001C01D92A937B207E1F799
:100070000E94B4000C941A020C940000843008F022
:1000800072C0683008F06FC0423008F06CC0813038
:1000900001F130F08230B1F1833009F44CC00895A1
:1000A000413059F42AB381E090E002C0880F991FD3
:1000B0006A95E2F7822B8ABB08952AB381E090E02B
:1000C00002C0880F991F6A95E2F7809582238ABB48
:1000D0000895413059F427B381E090E002C0880FC1
:1000E000991F6A95E2F7822B87BB089527B381E0B9
:1000F00090E002C0880F991F6A95E2F780958223ED
:1001000087BB0895413059F424B381E090E002C0E8
:10011000880F991F6A95E2F7822B84BB089524B358
:1001200081E090E002C0880F991F6A95E2F7809500
:10013000822384BB0895413059F421B381E090E0DB
:1001400002C0880F991F6A95E2F7822B81BB089540
:1001500021B381E090E002C0880F991F6A95E2F711
:100160008095822381BB089541E065E083E00E9491
:100170003E000E94360181E091E00E9457010E94FA
:100180004D01FFCF1F920F920FB60F9211242F93A4
:100190003F934F935F936F937F938F939F93AF930F
:1001A000BF93EF93FF9380916B0090916C00019649
:1001B00090936C0080936B00813D934069F480E7DD
:1001C00082BF10926C0010926B00E0917700F0916A
:1001D0007800309709F00995FF91EF91BF91AF91A9
:1001E0009F918F917F916F915F914F913F912F914F
:1001F0000F900FBE0F901F9018951F920F920FB681
:100200000F9211242F933F934F935F936F937F939C
:100210008F939F93AF93BF93EF93FF938091690068
:1002200090916A00019690936A0080936900883EDD
:10023000934059F410926A0010926900E0917500A1
:10024000F0917600309709F00995FF91EF91BF91F9
:10025000AF919F918F917F916F915F914F913F915E
:100260002F910F900FBE0F901F9018958FB58E7F16
:100270008FBD8FB582608FBD8EB588608EBD8EB507
:1002800080618EBD8FB58F7B8FBD8FB580688FBD30
:1002900087E893E197BD86BD08958EB581608EBDD8
:1002A0008EB582608EBD8EB58B7F8EBD08959BBD51
:1002B0008ABD08951F920F920FB60F9211242F93AB
:1002C0003F934F935F936F937F938F939F93AF93DE
:1002D000BF93EF93FF938091670090916800019620
:1002E0009093680080936700049769F480E782BF69
:1002F0001092680010926700E0917300F091740012
:10030000309709F00995FF91EF91BF91AF919F91BF
:100310008F917F916F915F914F913F912F910F90AE
:100320000FBE0F901F9018951F920F920FB60F924D
:1003300011242F933F934F935F936F937F938F93EA
:100340009F93AF93BF93EF93FF938091650090913C
:100350006600019690936600809365000A9759F4B1
:100360001092660010926500E0917100F0917200A9
:10037000309709F00995FF91EF91BF91AF919F914F
:100380008F917F916F915F914F913F912F910F903E
:100390000FBE0F901F9018951F920F920FB60F92DD
:1003A00011242F933F938F939F9386B597B5909386
:1003B000640080936300209162002130A1F42091B9
:1003C000600030916100821B930B880F991F880F8A
:1003D000991F90936E0080936D008EB58F7B8EBDBC
:1003E0001092620016C0211114C02091600030915B
:1003F0006100821B930B880F991F880F991F9093A0
:10040000700080936F008EB580648EBD81E0809314
:1004100062008091630090916400909361008093EA
:1004200060009F918F913F912F910F900FBE0F9081
:080430001F901895F894FFCF0E
:00000001FF
