:100000000C942A000C943C000C943C000C943C0092
:100010000C943C000C943C000C943C000C943C0070
:100020000C943C000C943C000C943C000C943C0060
:100030000C943C000C943C000C943C000C943C0050
:100040000C943C000C943C000C943C000C943C0040
:100050000C943C0011241FBECFE5D8E0DEBFCDBF1D
:1000600020E0A0E6B0E001C01D92AA36B207E1F799
:100070000E949E030C94F8030C94000087B18064E6
:1000800087B987B18F7787B987B18F7D87B986B1F7
:100090008F7D86B986B1877F86B986B1816086B942
:1000A00086B1826086B986B1846086B986B180687F
:1000B00086B908958032B0F46115710599F097B151
:1000C000907E97B997B1892B87B986B1806486B93C
:1000D000349BFECF86B1806186B984B195B1FB01B6
:1000E0009183808308950F931F93CF93DF9300D064
:1000F000CDB7DEB78B01BE016F5F7F4F0E945A0004
:1001000029813A81A8E8B3E10E94E903DC01CB012F
:10011000072E7AE0B695A795979587957A95D1F7AA
:10012000702DF801918380830F900F90DF91CF9114
:100130001F910F910895843008F072C0683008F064
:100140006FC0423008F06CC0813001F130F0823075
:10015000B1F1833009F44CC00895413059F42AB309
:1001600081E090E002C0880F991F6A95E2F7822B28
:100170008ABB08952AB381E090E002C0880F991FDE
:100180006A95E2F7809582238ABB0895413059F43D
:1001900027B381E090E002C0880F991F6A95E2F7CB
:1001A000822B87BB089527B381E090E002C0880FBF
:1001B000991F6A95E2F78095822387BB08954130A5
:1001C00059F424B381E090E002C0880F991F6A952A
:1001D000E2F7822B84BB089524B381E090E002C053
:1001E000880F991F6A95E2F78095822384BB089552
:1001F000413059F421B381E090E002C0880F991F8B
:100200006A95E2F7822B81BB089521B381E090E0EB
:1002100002C0880F991F6A95E2F78095822381BBFF
:100220000895843008F072C0683008F06FC0423022
:1002300008F06CC0813001F130F08230B1F18330D0
:1002400009F44CC00895413059F42BB381E090E09B
:1002500002C0880F991F6A95E2F7822B8BBB089525
:100260002BB381E090E002C0880F991F6A95E2F7F6
:10027000809582238BBB0895413059F428B381E0E7
:1002800090E002C0880F991F6A95E2F7822B88BB25
:10029000089528B381E090E002C0880F991F6A9505
:1002A000E2F78095822388BB0895413059F425B345
:1002B00081E090E002C0880F991F6A95E2F7822BD7
:1002C00085BB089525B381E090E002C0880F991F97
:1002D0006A95E2F78095822385BB0895413059F4F1
:1002E00022B381E090E002C0880F991F6A95E2F77F
:1002F000822B82BB089522B381E090E002C0880F78
:10030000991F6A95E2F78095822382BB089540E0A9
:1003100062E080E00E949B0040E064E080E00E9498
:100320009B0040E065E080E00E949B0040E066E0CA
:1003300080E00E949B0040E067E080E00E949B001C
:10034000089562E670E082E00E94730060E670E06B
:1003500084E00E94730068E670E085E00E9473000C
:1003600064E670E086E00E94730066E670E087E075
:100370000E947300089560E081E00E948C038EE388
:100380000E94F00266E081E00E948C038EE30E94EE
:10039000F0026CE081E00E948C038EE30E94F00288
:1003A00060E082E00E948C038EE30E94F00266E02F
:1003B00082E00E948C038EE30E94F00261E081E003
:1003C0000E948C03609160007091610080E090E079
:1003D0000E94260367E081E00E948C036091680020
:1003E0007091690080E090E00E9426036DE081E05A
:1003F0000E948C03609162007091630080E090E045
:100400000E94260361E082E00E948C0360916400F8
:100410007091650080E090E00E94260367E082E032
:100420000E948C03609166007091670080E090E00C
:100430000E9426036FE082E00E948C030895CF9310
:10044000C82F80FF06C041E064E080E00E941101F7
:1004500005C040E064E080E00E941101C1FF06C0D9
:1004600041E065E080E00E94110105C040E065E0E8
:1004700080E00E941101C2FF06C041E066E080E01A
:100480000E94110105C040E066E080E00E94110179
:10049000C3FF06C041E067E080E00E94110105C093
:1004A00040E067E080E00E941101CF91089541E0B3
:1004B00064E080E00E949B0041E065E080E00E94F3
:1004C0009B0041E066E080E00E949B0041E067E025
:1004D00080E00E949B0041E061E081E00E949B007F
:1004E00041E062E081E00E949B0041E063E081E046
:1004F0000E949B000895CF93C82F40E061E081E007
:100500000E94110140E062E081E00E9411018C2F05
:1005100082958F700E941F0241E063E081E00E949B
:1005200011018FE99FE00197F1F700C0000040E062
:1005300063E081E00E9411018C2F0E941F0241E0C4
:1005400063E081E00E9411018FE99FE00197F1F7DC
:1005500000C0000040E063E081E00E941101CF9103
:1005600008952FE785EB91E0215080409040E1F71E
:1005700000C0000040E061E081E00E94110140E025
:1005800062E081E00E94110182E00E941F0241E0CE
:1005900063E081E00E9411018FE99FE00197F1F78C
:1005A00000C0000040E063E081E00E94110188E2A9
:1005B0000E947B0290EF9A95F1F78FE00E947B02F8
:1005C00020EF2A95F1F781E00E947B028FE39FE103
:1005D0000197F1F700C0000086E00E947B020895B9
:1005E000CF93C82F41E061E081E00E94110140E01B
:1005F00062E081E00E9411018C2F82958F700E9431
:100600001F0241E063E081E00E9411018FE99FE059
:100610000197F1F700C0000040E063E081E00E9434
:1006200011018C2F0E941F0241E063E081E00E94D3
:1006300011018FE99FE00197F1F700C0000040E051
:1006400063E081E00E941101CF910895CF92DF9283
:10065000EF92FF920F931F938B019C01672B682BE6
:10066000692B49F580E30E94F00245C0DC01CB0113
:10067000880F991FAA1FBB1F6C017D01CC0CDD1CCC
:10068000EE1CFF1CCC0CDD1CEE1CFF1CC80ED91E82
:10069000EA1EFB1EC901B8012AE030E040E050E04C
:1006A0000E94C7036C0D7D1D8E1D9F1D022F132FF1
:1006B000242F352F04C061E070E080E090E0011548
:1006C00011052105310591F62AE030E040E050E0C7
:1006D0000E94C703E22EF32E042F152F80E3860F0E
:1006E0000E94F0026E2D7F2D802F912F61307105B9
:1006F0008105910549F71F910F91FF90EF90DF90D1
:10070000CF90089581E00E947B028FE39FE10197E3
:10071000F1F700C000000895813039F4603168F4C9
:1007200080E8860F0E947B020895823031F46031A8
:1007300020F480EC860F0E947B0208950E945702ED
:100740000E943E000E94B1022FEF89EF90E02150FD
:1007500080409040E1F700C000000E9487010E94A5
:10076000A1018FE39CE90197F1F700C000000E940E
:1007700057020E94BB019FEF27E883E19150204080
:100780008040E1F700C000000E948203E6CFA1E2B2
:100790001A2EAA1BBB1BFD010DC0AA1FBB1FEE1FFB
:1007A000FF1FA217B307E407F50720F0A21BB30B46
:1007B000E40BF50B661F771F881F991F1A9469F7C2
:1007C00060957095809590959B01AC01BD01CF011E
:1007D0000895A29FB001B39FC001A39F700D811D1A
:1007E0001124911DB29F700D811D1124911D08953A
:0407F000F894FFCFAB
:00000001FF
