:100000000C942A000C9434000C9434000C943400AA
:100010000C9434000C9434000C9434000C94340090
:100020000C9434000C9434000C9434000C94340080
:100030000C9434000C9434000C9434000C94340070
:100040000C9434000C9434000C9434000C94340060
:100050000C94340011241FBECFE5D8E0DEBFCDBF25
:100060000E9436000C9465000C9400008FEF84BB56
:100070008FE785BB81B3806181BB82B3806182BB26
:1000800081B3806881BB82B3806882BB8FE385BB0C
:100090008DE785BB82B38F7E82BB8FE19EE40197A3
:1000A000F1F700C0000082B3806182BB8FE485BBA2
:1000B00082B38F7782BB8FE19EE40197F1F700C096
:0E00C000000082B3806882BBE3CFF894FFCFCC
:00000001FF
