:100000000C942A000C9495010C94BE010C94E70109
:100010000C943C000C943C000C943C000C943C0070
:100020000C943C000C943C000C943C000C943C0060
:100030000C943C000C943C000C943C000C943C0050
:100040000C943C000C943C000C943C000C943C0040
:100050000C943C0011241FBECFE5D8E0DEBFCDBF1D
:1000600020E0A0E6B0E001C01D92A636B207E1F79D
:100070000E9432020C944C020C940000843008F070
:1000800072C0683008F06FC0423008F06CC0813038
:1000900001F130F08230B1F1833009F44CC00895A1
:1000A000413059F42AB381E090E002C0880F991FD3
:1000B0006A95E2F7822B8ABB08952AB381E090E02B
:1000C00002C0880F991F6A95E2F7809582238ABB48
:1000D0000895413059F427B381E090E002C0880FC1
:1000E000991F6A95E2F7822B87BB089527B381E0B9
:1000F00090E002C0880F991F6A95E2F780958223ED
:1001000087BB0895413059F424B381E090E002C0E8
:10011000880F991F6A95E2F7822B84BB089524B358
:1001200081E090E002C0880F991F6A95E2F7809500
:10013000822384BB0895413059F421B381E090E0DB
:1001400002C0880F991F6A95E2F7822B81BB089540
:1001500021B381E090E002C0880F991F6A95E2F711
:100160008095822381BB0895843008F072C0683086
:1001700008F06FC0423008F06CC0813001F130F0FF
:100180008230B1F1833009F44CC00895413059F404
:100190002BB381E090E002C0880F991F6A95E2F7C7
:1001A000822B8BBB08952BB381E090E002C0880FB7
:1001B000991F6A95E2F7809582238BBB08954130A1
:1001C00059F428B381E090E002C0880F991F6A9526
:1001D000E2F7822B88BB089528B381E090E002C04B
:1001E000880F991F6A95E2F78095822388BB08954E
:1001F000413059F425B381E090E002C0880F991F87
:100200006A95E2F7822B85BB089525B381E090E0E3
:1002100002C0880F991F6A95E2F78095822385BBFB
:100220000895413059F422B381E090E002C0880F74
:10023000991F6A95E2F7822B82BB089522B381E071
:1002400090E002C0880F991F6A95E2F7809582239B
:1002500082BB0895813061F120F0823009F44FC0F3
:100260000895611107C085B7816085BF85B7826039
:1002700085BF1AC0613039F485B78E7F85BF85B7D9
:10028000826085BF11C0623039F485B78E7F85BF2B
:1002900085B78D7F85BF08C0633031F485B7816035
:1002A00085BF85B78D7F85BF8BB780648BBF089571
:1002B000611107C085B7846085BF85B7886085BF39
:1002C0001AC0613039F485B78B7F85BF85B78860E8
:1002D00085BF11C0623039F485B78B7F85BF85B784
:1002E000877F85BF08C0633031F485B7846085BFE0
:1002F00085B7877F85BF8BB780688BBF08956111F5
:1003000004C084B7806484BF05C0613019F484B729
:100310008F7B84BF8BB780628BBF0895009721F0DD
:10032000909365008093640008951F920F920FB61A
:100330000F9211242F933F934F935F936F937F936B
:100340008F939F93AF93BF93EF93FF93E0916400DC
:10035000F0916500309709F00995FF91EF91BF91F9
:10036000AF919F918F917F916F915F914F913F914D
:100370002F910F900FBE0F901F9018951F920F9204
:100380000FB60F9211242F933F934F935F936F9368
:100390007F938F939F93AF93BF93EF93FF93E091DE
:1003A0006200F0916300309709F00995FF91EF9199
:1003B000BF91AF919F918F917F916F915F914F917D
:1003C0003F912F910F900FBE0F901F9018951F9285
:1003D0000F920FB60F9211242F933F934F935F9379
:1003E0006F937F938F939F93AF93BF93EF93FF93FD
:1003F000E0916000F0916100309709F00995FF915C
:10040000EF91BF91AF919F918F917F916F915F918C
:100410004F913F912F910F900FBE0F901F90189505
:100420008FB780688FBF089541E063E080E00E944D
:10043000B40041E067E082E00E94B4002FEF89E65B
:1004400098E1215080409040E1F700C0000040E07A
:1004500067E082E00E94B40040E063E080E00E9438
:10046000B400089540E062E083E00E943E0041E075
:1004700063E080E00E943E0041E067E082E00E948D
:100480003E000E94100284E192E00E948E0160E032
:0C04900080E00E942A01FFCFF894FFCF0B
:00000001FF
